:020000040800F2
:1000000000000220153D0008190E00081B0E000814
:100010001D0E00081F0E0008210E00080000000041
:10002000000000000000000000000000230E000897
:10003000250E000800000000270E0008290E000809
:10004000653D0008653D0008653D0008653D000808
:10005000653D0008653D0008653D0008653D0008F8
:10006000653D0008653D0008653D0008653D0008E8
:10007000310E0008653D0008653D0008653D00083B
:10008000653D0008653D0008653D0008653D0008C8
:10009000410E0008653D0008653D0008653D00080B
:1000A000653D0008653D0008653D0008653D0008A8
:1000B000653D0008653D0008653D0008653D000898
:1000C000653D0008653D0008653D0008653D000888
:1000D000653D0008653D0008653D0008510E0008BB
:1000E000653D0008653D0008653D0008653D000868
:1000F000653D0008653D0008653D0008653D000858
:10010000653D0008653D0008653D0008653D000847
:10011000653D0008653D0008653D0008653D000837
:10012000653D0008653D0008653D0008653D000827
:10013000653D0008653D0008653D0008653D000817
:10014000653D0008610E0008653D0008653D00083A
:10015000653D0008653D0008710E0008653D00081A
:10016000653D0008653D0008653D0008653D0008E7
:10017000653D0008653D0008653D00080000000081
:08018000653D0008653D000823
:1001880010B5054C237833B9044B13B10448AFF3C9
:1001980000800123237010BD4004002000000000EF
:1001A800A844000808B5034B1BB103490348AFF343
:1001B800008008BD0000000044040020A844000896
:1001C8004FF0FF0C1CEAD0521EBF1CEAD15392EA32
:1001D8000C0F93EA0C0F6FD01A4480EA010C40020E
:1001E80018BF5FEA41211ED04FF0006343EA501068
:1001F80043EA5111A0FB01310CF00040B1F5000FAA
:100208003EBF490041EAD3715B0040EA010062F158
:100218007F02FD2A1DD8B3F1004F40EBC25008BF42
:1002280020F00100704790F0000F0CF0004C08BF60
:1002380049024CEA502040EA51207F3AC2BFD2F12D
:10024800FF0340EAC250704740F400004FF000033B
:10025800013A5DDC12F1190FDCBF00F00040704775
:10026800C2F10002410021FA02F1C2F1200200FAB3
:1002780002FC5FEA310040F1000053EA4C0308BF7A
:1002880020EADC70704792F0000F00F0004C02BFCB
:10029800400010F4000F013AF9D040EA0C0093F046
:1002A800000F01F0004C02BF490011F4000F013BA0
:1002B800F9D041EA0C018FE70CEAD15392EA0C0F0E
:1002C80018BF93EA0C0F0AD030F0004C18BF31F079
:1002D800004CD8D180EA010000F00040704790F04F
:1002E800000F17BF90F0004F084691F0000F91F0F3
:1002F800004F14D092EA0C0F01D142020FD193EAB9
:100308000C0F03D14B0218BF084608D180EA010040
:1003180000F0004040F0FE4040F40000704740F01C
:10032800FE4040F44000704780F0004002E000BF0B
:1003380081F0004142001FBF5FEA410392EA030FC8
:100348007FEA226C7FEA236C6AD04FEA1262D2EB12
:100358001363C1BFD218414048404140B8BF5B4217
:10036800192B88BF704710F0004F40F4000020F0B0
:100378007F4018BF404211F0004F41F4000121F0C6
:100388007F4118BF494292EA030F3FD0A2F1010210
:1003980041FA03FC10EB0C00C3F1200301FA03F14E
:1003A80000F0004302D5494260EB4000B0F5000F71
:1003B80013D3B0F1807F06D340084FEA310102F130
:1003C8000102FE2A51D2B1F1004F40EBC25008BFE2
:1003D80020F0010040EA03007047490040EB0000AC
:1003E800013A28BFB0F5000FEDD2B0FA80FCACF1AD
:1003F800080CB2EB0C0200FA0CF0AABF00EBC250DA
:1004080052421843BCBFD0401843704792F0000FC7
:1004180081F4000106BF80F400000132013BB5E71A
:100428004FEA41037FEA226C18BF7FEA236C21D090
:1004380092EA030F04D092F0000F08BF08467047F5
:1004480090EA010F1CBF0020704712F07F4F04D1C3
:10045800400028BF40F00040704712F100723CBFD6
:1004680000F50000704700F0004343F0FE4040F400
:10047800000070477FEA226216BF08467FEA2363BE
:100488000146420206BF5FEA412390EA010F40F4A9
:10049800800070474FF0000304E000BF10F00043F5
:1004A80048BF40425FEA000C08BF704743F09643DC
:1004B80001464FF000001CE050EA010208BF7047F7
:1004C8004FF000030AE000BF50EA010208BF70477E
:1004D80011F0004302D5404261EB41015FEA010C93
:1004E80002BF84460146002043F0B64308BFA3F18B
:1004F8008053A3F50003BCFA8CF2083AA3EBC2536D
:1005080010DB01FA02FC634400FA02FCC2F120028B
:10051800BCF1004F20FA02F243EB020008BF20F0C2
:100528000100704702F1200201FA02FCC2F1200228
:1005380050EA4C0021FA02F243EB020008BF20EA1D
:10054800DC7070474FF0FF3C06E000BF4FF0010C35
:1005580002E000BF4FF0010C4DF804CD4FEA400215
:100568004FEA41037FEA226C18BF7FEA236C11D05F
:1005780001B052EA530C18BF90EA010F58BFB2EB12
:10058800030088BFC81738BF6FEAE17018BF40F092
:10059800010070477FEA226C02D15FEA402C05D146
:1005A8007FEA236CE4D15FEA412CE1D05DF8040BCB
:1005B800704700BF844608466146FFE70FB5FFF75E
:1005C800C9FF002848BF10F1000F0FBD4DF808ED16
:1005D800FFF7F4FF0CBF012000205DF808FB00BF07
:1005E8004DF808EDFFF7EAFF34BF012000205DF861
:1005F80008FB00BF4DF808EDFFF7E0FF94BF0120AE
:1006080000205DF808FB00BF4DF808EDFFF7D2FFAA
:1006180094BF012000205DF808FB00BF4DF808EDED
:10062800FFF7C8FF34BF012000205DF808FB00BFBA
:100638004FEA4002B2F1FE4F0FD34FF09E03B3EBE7
:1006480012620DD94FEA002343F0004310F0004F27
:1006580023FA02F018BF404270474FF0000070477D
:1006680012F1610F01D1420205D110F0004008BF1C
:100678006FF0004070474FF00000704753B94AB917
:10068800002908BF00281CBF4FF0FF314FF0FF3092
:1006980000F074B9ADF1080C6DE904CE00F006F86D
:1006A800DDF804E0DDE9022304B070472DE9F047E6
:1006B800089E0D4604468846002B4DD18A42944632
:1006C80068D9B2FA82F252B101FA02F3C2F12001FA
:1006D80020FA01F10CFA02FC41EA030894404FEABF
:1006E8001C45210CB8FBF5FE1FFA8CF705FB1E8391
:1006F80041EA03430EFB07F199420BD91CEB0303B4
:100708000EF1FF3080F01E81994240F21B81AEF15C
:10071800020E63445B1AA4B2B3FBF5F005FB103379
:1007280044EA034400FB07F7A7420AD91CEB040478
:1007380000F1FF3380F00881A74240F2058164444C
:100748000238E41B40EA0E4000211EB1D4400023C9
:10075800C6E90043BDE8F0878B4208D9002E00F0B7
:10076800EE800021C6E900050846BDE8F087B3FA27
:1007780083F100294AD1AB4202D3824200F2F980C8
:10078800841A65EB030301209846002EE2D0C6E9DF
:100798000048DFE702B9FFDEB2FA82F2002A40F031
:1007A8009180A1EB0C054FEA1C471FFA8CFE012132
:1007B800B5FBF7F307FB1350250C45EA00450EFB84
:1007C80003F0A84208D91CEB050503F1FF3802D253
:1007D800A84200F2CB8043462D1AA4B2B5FBF7F02D
:1007E80007FB105544EA05440EFB00FEA64508D950
:1007F8001CEB040400F1FF3502D2A64500F2BB80D1
:100808002846A4EB0E0440EA03409EE7C1F1200706
:100818008B4022FA07FC4CEA030C20FA07F405FA8D
:1008280001F31C43FD404FEA1C4900FA01F3B5FBF4
:10083800F9F8200C1FFA8CFE09FB185540EA05450B
:1008480008FB0EF0A84202FA01F20BD91CEB0505D1
:1008580008F1FF3A80F08880A84240F28580A8F12C
:10086800020865442D1AA4B2B5FBF9F009FB10552E
:1008780044EA054500FB0EFEAE4508D91CEB05050C
:1008880000F1FF346CD2AE456AD90238654440EABB
:100898000840A0FB0294A5EB0E05A542C846A64653
:1008A80056D353D05EB1B3EB080265EB0E0505FADB
:1008B80007F722FA01F3CD401F43C6E9007500216E
:1008C800BDE8F087C2F1200320FA03F10CFA02FC1C
:1008D80025FA03F395400D434FEA1C471FFA8CFE97
:1008E800B3FBF7F107FB11302B0C43EA004301FB84
:1008F8000EF0984204FA02F408D91CEB030301F144
:10090800FF382FD298422DD9023963441B1AADB251
:10091800B3FBF7F007FB103345EA034500FB0EF382
:10092800AB4208D91CEB050500F1FF3816D2AB42E3
:1009380014D902386544ED1A40EA014138E73146D6
:10094800304607E78646E5E61846FAE64B45A9D25B
:10095800B9EB020864EB0C0E0138A3E74046EAE75E
:10096800204694E74146D1E7D0467BE7023B654401
:1009780032E7084609E76444023842E7704700BF97
:1009880008B50D480D4B03600323436000238360C3
:10099800C3604FF4102202614FF4001242610376E3
:1009A80043768376C3760377437700F011FC00B96A
:1009B80008BD00F045F9FBE7600400200064004032
:1009C80008B50D480D4B0360032343600023836083
:1009D800C3604FF4102202614FF4001242610376A3
:1009E80043768376C3760377437700F0F1FB00B94B
:1009F80008BD00F025F9FBE78804002000680040E6
:100A080010B58AB0002305930693079308930993BA
:100A180003683D4A934204D03C4A934234D00AB01A
:100A280010BD3B4A136801331360012B1FD000240B
:100A38000194384B1A6B42F008021A631B6B03F0DF
:100A480008030193019B032305930222069208934E
:100A58000923099305A9304802F0B0F92246214636
:100A6800142000F0A5FF142000F0DAFFD7E70023D8
:100A78000093284B1A6C42F000721A641B6C03F046
:100A880000730093009BD2E700230293214B1A6C5A
:100A980042F080621A641B6C03F080630293029B2D
:100AA8001B4A136801331360012B20D000240494DF
:100AB800184B1A6B42F002021A631B6B03F0020315
:100AC8000493049B6023059302230693032308934E
:100AD8000923099305A9114802F070F92246214615
:100AE800412000F065FF412000F09AFF97E70023BE
:100AF8000393084B1A6C42F000721A641B6C03F0E3
:100B080000730393039BD1E7006400400068004032
:100B18005C04002000380240000C0240000402403F
:100B280010B582B000240094124B1A6B42F40012E4
:100B38001A631A6B02F400120092009A01941A6B5D
:100B480042F480021A631B6B03F480030193019B38
:100B5800224621460C2000F02BFF0C2000F060FFFD
:100B680022462146462000F023FF462000F058FF89
:100B780002B010BD0038024086B0002200921F4B20
:100B8800196B41F002011963196B01F00201009120
:100B980000990192196B41F040011963196B01F03A
:100BA8004001019101990292196B41F00101196309
:100BB800196B01F00101029102990392196B41F03E
:100BC80008011963196B01F0080103910399049254
:100BD800196B41F004011963196B01F004010491C8
:100BE800049905921A6B42F080021A631B6B03F09A
:100BF80080030593059B06B0704700BF003802408C
:100C080070B582B004460D4616464FF60343ADF85C
:100C180004304FF47F73ADF800306423022201A939
:100C280002F03DFE6423B2B22946204602F037FEA8
:100C3800642302226946204602F031FE02B070BDEC
:100C480072B6FEE700B595B03022002108A803F07F
:100C580065FB00230393049305930693079301937D
:100C6800204A116C41F080511164126C02F08052DC
:100C78000192019A02931C4B1A6842F480421A604E
:100C88001B6803F480430293029B012308934FF4EB
:100C98008033099302230E934FF480020F920622A9
:100CA8001092A822119212930423139308A802F019
:100CB80077F998B90F23039302230493002305932C
:100CC8004FF4A05306934FF480530793052103A8CC
:100CD80002F0B4FB20B915B05DF804FBFFF7B0FFD4
:100CE800FFF7AEFF003802400070004070B594B0C6
:100CF80000F02EFAFFF7A6FFFFF73EFFFFF710FF01
:100D0800FFF73EFEFFF75CFE00F0D2F800F0EEF8C9
:100D180000F0B4F8274B12220092A3F1120201212D
:100D2800254803F047F9254B0293254B01934FF0D3
:100D38007E530093234B244A012105A803F06AF946
:100D480003F00EF8002427E0013424B21F4EB6F950
:100D58000230ADF810301E4DB5F90030ADF8123044
:100D6800042204A91B48FFF74BFFB6F90260B5F946
:100D78000000FFF793FB05463046FFF78FFB01465F
:100D88002A4605A803F055F9FFF752FC00B203F014
:100D980037F8012000F008FAB4F57A7FD4DBA4F51F
:100DA8007A739BB2B3F57A7FCED3B4F5FA6FCBDD05
:100DB8000024C9E70E070020B8050020CDCCCC3DA3
:100DC8003333333F00007A4400606A46B00600209F
:100DD800E40600207005002082B0002100910B4B32
:100DE8005A6C42F480425A645A6C02F4804200926F
:100DF800009A01911A6C42F080521A641B6C03F03D
:100E080080530193019B02B0704700BF0038024035
:100E1800FEE7FEE7FEE7FEE7FEE77047704770472C
:100E280008B500F0AFF908BD08B5024800F046FF64
:100E380008BD00BF1005002008B5024800F081FC7D
:100E480008BD00BF6004002008B5024802F01AFE81
:100E580008BD00BFB805002008B5024800F071FCC5
:100E680008BD00BF8804002008B5024800F026FF2E
:100E780008BD00BFB00400207047000008B50A484C
:100E88000A4B03604FF4E133436000238360C3607F
:100E980003610C2242618361C36102F0D0FC00B996
:100EA80008BDFFF7CDFEFBE77005002000100140EC
:100EB80008B50B480B4B03600B4B43600023836062
:100EC800C3604FF4806202610C2242618361C36196
:100ED80002F0B5FC00B908BDFFF7B2FEFBE700BFA2
:100EE800B805002000480040A086010008B50A485F
:100EF8000A4B03604FF4E133436000238360C3600F
:100F080003610C2242618361C36102F098FC00B95D
:100F180008BDFFF795FEFBE700060020001401401E
:100F28002DE9F0418CB004460023079308930993F8
:100F38000A930B930368674A934209D0664A93421F
:100F48005DD0664A934200F0A1800CB0BDE8F08104
:100F580000250095624B5A6C42F010025A645A6C94
:100F680002F010020092009A01951A6B42F00202F8
:100F78001A631A6B02F002020192019A02951A6B27
:100F880042F001021A631B6B03F001030293029BF8
:100F9800802307934FF00208CDF8208003270A9793
:100FA80007260B9607A94F4801F008FF4FF4007376
:100FB8000793CDF8208009950A970B9607A94A4808
:100FC80001F0FCFE49484A4B03604FF00063436060
:100FD80040238360C5604FF4806303614561856188
:100FE800C5614FF440330362456200F0A3FD18B9B0
:100FF8003E4BA3639C63A8E7FFF722FEF8E70025B2
:101008000395374B1A6C42F480221A641A6C02F466
:1010180080220392039A04951A6B42F004021A6321
:101028001B6B03F004030493049B4FF44063079382
:101038000223089303230A9307230B9307A92D4838
:1010480001F0BCFE2C482D4B03604FF00063436059
:101058008560C5604FF48063036145618561C56142
:101068004FF440330362456200F064FD58B9224BE7
:10107800E3639C6300221146272000F099FC272097
:1010880000F0CEFC61E7FFF7DBFDF0E700210591FA
:10109800134B5A6C42F020025A645A6C02F0200238
:1010A8000592059A06911A6B42F040021A631B6B6F
:1010B80003F040030693069B4FF4844307930223EF
:1010C800089303230A9308230B9307A90C4801F0FC
:1010D80075FE3AE700100140004800400014014046
:1010E800003802400004024000000240B004002022
:1010F800B864024000080240100500202860024041
:101108000018024010B504460E4B18784FF47A7355
:10111800B3FBF0F30C4A1068B0FBF3F000F08EFC60
:1011280068B90F2C01D901200AE0002221464FF0AE
:10113800FF3000F03DFC054B1C60002000E0012062
:1011480010BD00BF0400002000000020080000209F
:1011580008B50B4B1A6842F400721A601A6842F418
:1011680080621A601A6842F480721A60032000F0E4
:101178000DFC0F20FFF7C6FFFFF72EFE002008BD6D
:10118800003C0240034A1168034B1B780B44136070
:10119800704700BF4806002004000020014B186873
:1011A800704700BF4806002038B50446FFF7F6FF31
:1011B8000546B4F1FF3F02D0044B1B781C44FFF7EF
:1011C800EDFF401BA042FAD338BD00BF0400002049
:1011D800002800F0A18038B5044690F82030D3B13B
:1011E8002268136843F001031360FFF7D7FF054631
:1011F80023685A6812F0010F10D1FFF7CFFF401B88
:101208000A28F5D9636A43F400336362052384F836
:101218002030012038BDFFF7F3FBE1E71A6822F020
:1012280002021A60FFF7BAFF054623685A6812F0EF
:10123800020F0DD0FFF7B2FF401B0A28F5D9636AE9
:1012480043F400336362052384F820300120E1E78A
:10125800227E012A3DD01A6822F080021A60637E3D
:10126800012B3BD02268136823F040031360A37E50
:10127800012B39D02268136823F020031360E37E22
:10128800012B37D02268136843F010031360237FC3
:10129800012B35D02268136823F008031360637F9D
:1012A800012B33D02268136823F004031360A3686A
:1012B800E268134322691343626913436268013A7F
:1012C80021681343CB6100206062012384F8203039
:1012D800A0E71A6842F080021A60C0E72268136823
:1012E80043F040031360C2E72268136843F0200309
:1012F8001360C4E72268136823F010031360C6E77D
:101308002268136843F008031360C8E7226813686B
:1013180043F004031360CAE70120704790F82030B7
:10132800013BDBB2012B05D9436A43F480234362B6
:101338000120704710B5474BD3F8002242F0010254
:10134800C3F80022D3F8002222F47C52C3F800220A
:10135800D3F80022486A42EA0022C3F800224A6908
:1013680002F01F02012000FA02F2D3F81C026FEA11
:10137800020C20EA0200C3F81C02CB69CBB9354B3A
:10138800D3F80C020CEA0000C3F80C028C884869F8
:10139800D1F80CE044EA0E44483043F830408C68F9
:1013A800088840EA04404C6904F1480E03EBCE0378
:1013B8005860CB69012B1ED08B69002B35D125488D
:1013C800D0F804320CEA0303C0F804320B699BBB63
:1013D8002048D0F814320CEA0303C0F814320B6A20
:1013E800012B30D01B4AD2F8003223F00103C2F897
:1013F8000032002010BD174BD3F80C021043C3F87D
:101408000C028C884869D1F800E044EA0E44483060
:1014180043F8304088894C69D1F808E040EA0E402A
:10142800483403EBC4035860C6E70A48D0F80432CE
:101438001343C0F80432C9E70648D0F814321343FE
:10144800C0F81432CBE70349D1F81C321A43C1F86B
:101458001C22C7E70064004070B5044690F820508D
:10146800EDB2012D06D0436A43F4002343620125FF
:10147800284670BD022380F820300268136823F0E4
:1014880001031360FFF78AFE064623685B6813F0C2
:10149800010F0CD0FFF782FE831B0A2BF5D9636A74
:1014A80043F400336362052384F82030E0E7002525
:1014B8006562DDE730B590F820C00468A4680CF1D7
:1014C800FF3C5FFA8CFCBCF1010F62D814F0E05FBE
:1014D80059D0C4F3016C012404FA0CF41C608B6825
:1014E800002B3DD10D68CB68046843EA45550CF1E3
:1014F80018031B01E55003680C690CF1180E03EB87
:101508000E135C600B7D012B35D0D17993791B04C8
:1015180043EA0163517943EA0123147901682343BB
:1015280001EB0C11C1F88C31D17893781B0443EA94
:101538000163517843EA0123117802680B4302EBF7
:101548000C12C2F8883102680CF1180C4FEA0C1C16
:1015580052F80C3043F0010342F80C3000201DE033
:101568004C6843EAC403CC6823430CF118042401F3
:1015780005682B51BFE7036803EB0E13596841F464
:1015880080715960C1E7436A43F400134362012044
:1015980004E0436A43F480234362012030BD90F89D
:1015A80020C00CF1FF3C5FFA8CFCBCF1010F00F28B
:1015B800A58030B451B90468E46814F0030F10D161
:1015C800436A43F40013436201207EE004682469FF
:1015D80014F0030F05D1436A43F40013436201205A
:1015E80073E0056801F11B0424012C5904F004047C
:1015F8009460002C6BD1056801F11B0424012C595F
:10160800640D1460046801F11B0C4FEA0C1C54F8BB
:101618000C4004F00204D4600468A444DCF80450CC
:1016280015F0080F5BD008241461056801F11B0C44
:1016380005EB0C156D68C5F307259561046804EB87
:101648000C146468240C5461026802EB0112D2F88D
:10165800B8211A70026802EB0112D2F8B821C2F35D
:1016680007225A70026802EB0112D2F8B821C2F3BD
:1016780007429A70026802EB0112D2F8B821120EE2
:10168800DA70026802EB0112D2F8BC211A71026802
:1016980002EB0112D2F8BC21C2F307225A71026888
:1016A80002EB0112D2F8BC21C2F307429A71026818
:1016B80002EB0112D2F8BC21120EDA71C1B902682C
:1016C800D36843F02003D360002030BC704705681E
:1016D80001F11B0424012C59E408546092E701F13C
:1016E8001B0504EB0514646804F00F0414619CE7FF
:1016F8000268136943F020031361E5E7436A43F482
:10170800802343620120704790F82030013BDBB210
:10171800012B05D9436A43F48023436201207047B3
:101728000268536919435161002070477047704738
:1017380070477047704770477047704770477047E9
:1017480070472DE9F84F054603685C69D3F80480B3
:101758009F68D3F80CB0D3F810A0D3F8189014F001
:1017680001063BD017F0010616D001229A6017F047
:10177800020F08D117F0040F0CD117F0080606D095
:101788004FF4805608E0FFF7D1FF002604E0FFF78A
:10179800D0FF01E04FF4006617F4807F0DD02B686E
:1017A8004FF480729A6017F4007F40F0868017F437
:1017B800806F00F0868046F4005617F4803F0DD005
:1017C8002B684FF480329A6017F4003F40F0838012
:1017D80017F4802F00F0838046F4004614F0080FB9
:1017E80007D01BF0100F04D046F400762B681022A7
:1017F800DA6014F0040F02D01BF0080F79D114F04E
:10180800020F04D02B68DB6813F0030F78D114F0B3
:10181800400F07D01AF0100F04D046F480662B68EA
:1018280010221A6114F0200F02D01AF0080F6BD1A1
:1018380014F0100F04D02B681B6913F0030F6AD142
:1018480014F4003F02D018F0100F68D114F4803F50
:1018580002D018F0080F69D114F4004F7AD018F0AC
:10186800040F74D014F4807F04D019F0010F01D054
:1018780046F0010614F4007F04D019F0020F01D0DD
:1018880046F0020614F4806F04D019F0040F01D05A
:1018980046F0040614F4006F59D019F0700956D0B8
:1018A800B9F1400F65D058D8B9F1200F5ED0B9F121
:1018B800300F42D146F0200644E02846FFF737FFB4
:1018C8007BE717F4006F02D046F4804675E7284698
:1018D800FFF730FF71E72846FFF72AFF7EE717F486
:1018E800002F02D046F4803678E72846FFF723FF1A
:1018F80074E72B680822DA602846FFF71DFF7EE7A9
:10190800284602F00FFB82E72B6808221A61284656
:10191800FFF713FF8CE7284602F042FA90E72B689E
:1019280010225A602846FFF709FF8FE72B68082224
:101938005A602846FFF703FF8EE7B9F1100F01D16F
:1019480046F008062A68936923F0700393612B68B0
:1019580004225A609EB9BDE8F88FB9F1500F0BD038
:10196800B9F1600FEED146F48076EBE746F0100649
:10197800E8E746F04006E5E746F08006E2E76B6AEE
:101988001E436E622846FFF7DBFEE4E7074AD3688A
:1019980023F4E0631B041B0C000200F4E060034323
:1019A80043F0BF6343F40033D360704700ED00E0B9
:1019B80000B5194BDB68C3F30223C3F1070CBCF174
:1019C800040F28BF4FF0040C03F1040EBEF1060FFC
:1019D80018D9033B4FF0FF3E0EFA0CFC21EA0C012C
:1019E80099400EFA03F322EA0303194300280BDB9C
:1019F8000901C9B200F1604000F5614080F80013A8
:101A08005DF804FB0023E5E700F00F000901C9B207
:101A1800024B1954F4E700BF00ED00E014ED00E0BC
:101A2800002807DB00F01F02400901239340024A07
:101A380042F82030704700BF00E100E00138B0F103
:101A4800807F0BD24FF0E0235861054AF02182F8DD
:101A580023100020986107221A61704701207047FF
:101A680000ED00E010B40368D9B210390B4AA2FBAC
:101A7800014212090A4CA25CC2655F2908D923F405
:101A88007F7323F0030304338365806D10BC7047B4
:101A980023F47F7323F003038365F6E7ABAAAAAAAE
:101AA800D8440008836A826992B9012B0AD0022BB4
:101AB80002D00BB100207047C36A13F0807F28D191
:101AC80000207047C36AB3F1C07F24D0002070475C
:101AD800B2F5005F09D0022B25D9032B25D1C36AA3
:101AE80013F0807F23D100207047032B03D8DFE851
:101AF80003F01404140A00207047C36A13F0807FAF
:101B08000DD100207047C36AB3F1C07F09D000200F
:101B1800704701207047012070470120704701205D
:101B2800704701207047012070470020704701204E
:101B38007047000070B50446FFF730FB002C5BD0FF
:101B48000546022384F83530002384F834302268AF
:101B5800136823F00103136023681A6812F0010F59
:101B68000AD0FFF71BFB431B052BF5D92023636520
:101B7800032084F8350070BD1A6820481040616859
:101B8800A2680A43E1680A4321690A4361690A4372
:101B9800A1690A43E1690A43216A0A430243616A67
:101BA80004291ED01A602668756925F00705636A3E
:101BB8001D43042B07D1A36A1D43E36A1BB12046CA
:101BC800FFF770FF90B975612046FFF74BFFE26D94
:101BD8003F239340836000206065012384F83530FB
:101BE800C9E7E16A206B01430A43DBE740236365E9
:101BF800012084F83500BEE70120BCE73F8010F0E3
:101C080070B50446866DFFF7C9FA94F83530DBB233
:101C1800022B06D080236365002384F8343001202A
:101C280070BD05462268136823F016031360226806
:101C3800536923F080035361236CE3B1226813686E
:101C480023F0080313602268136823F0010313606C
:101C580023681B6813F0010F11D0FFF79FFA431B8D
:101C6800052BF5D920236365032084F8350000236C
:101C780084F83430D4E7A36C002BDFD1E3E7E26DBE
:101C88003F239340B360012384F83530002084F863
:101C98003400C5E790F83530DBB2022B03D080233F
:101CA800436501207047052380F8353002681368C2
:101CB80023F001031360002070470000F0B583B0E3
:101CC800044600230193724B1D68724BA3FB053534
:101CD800AD0A876D3E68C26D08239340334210D029
:101CE80003681A6812F0040F0BD01A6822F0040275
:101CF8001A60C26D08239340BB60436D43F0010333
:101D08004365E26D01239340334209D0226852694A
:101D180012F0800F04D0BB60636D43F0020363656B
:101D2800E26D04239340334209D02268126812F00E
:101D3800020F04D0BB60636D43F004036365E26D7A
:101D480010239340334224D02268126812F0080FFF
:101D58001FD0BB6023681A6812F4802F0DD01B684F
:101D680013F4002F04D1236C9BB12046984710E050
:101D7800A36C73B1204698470BE01A6812F4807F71
:101D880003D11A6822F008021A60236C0BB12046AE
:101D98009847E26D20239340334255D02268126859
:101DA80012F0100F50D0BB6094F83530DBB2052B21
:101DB8000ED023681A6812F4802F33D01B6813F4EE
:101DC800002F2AD1636C002B3ED0204698473BE079
:101DD8002268136823F0160313602268536923F0FE
:101DE80080035361236CA3B12268136823F00803AE
:101DF8001360E26D3F239340BB60012384F83530C4
:101E0800002384F83430236D002B3FD020469847B8
:101E18003CE0A36C002BE7D1EBE7E36BA3B12046D2
:101E2800984711E01A6812F4807F09D11A6822F0E5
:101E380010021A60012384F83530002384F8343006
:101E4800E36B0BB120469847636DFBB1636D13F0EC
:101E5800010F17D0052384F835302268136823F062
:101E680001031360019B01330193AB4204D823683B
:101E78001B6813F0010FF5D1012384F835300023D6
:101E880084F83430E36C0BB12046984703B0F0BDBA
:101E980000000020B5814E1BD0F800C0CCF80430FB
:101EA8008368402B04D0036899600368DA60704740
:101EB80003689A600368D9607047000038B5044623
:101EC8008068802817D0E06BD0B1606CC0B1E06C3E
:101ED800B0B194F83400012800F06987012084F833
:101EE800340094F83500C0B201280DD0002384F8DE
:101EF8003430022007E04FF480736365012002E06C
:101F080040236365012038BD022084F83500002095
:101F180060652568286840F480202860206803618F
:101F2800049B2046FFF7B8FF2368A54A934240F276
:101F38009880A2F58962934231D002F5806293427B
:101F480074D0A2F56872934272D002F5806293420F
:101F580070D0A2F5896293426ED002F580629342F6
:101F68006DD0A2F5687293426CD002F580629342FC
:101F78006BD0A2F5896293426AD002F580629342DF
:101F880069D0A2F56872934268D002F580629342E4
:101F980002D04FF0006203E04FF4001200E020226C
:101FA800884BDA602368864A934240F2CC81A2F5D6
:101FB8008962934200F0658102F58062934200F0E5
:101FC800A781A2F56872934200F0A48102F58062AD
:101FD800934200F0A181A2F58962934200F09E81AC
:101FE80002F58062934200F09C81A2F568729342E8
:101FF80000F09A8102F58062934200F09881A2F580
:102008008962934200F0968102F58062934200F063
:102018009481A2F56872934200F0928102F5806281
:10202800934200F02B814FF080622BE12022B7E72A
:102038002022B5E72022B3E74FF40062B0E74FF45F
:102048000062ADE74FF40062AAE74FF40062A7E729
:102058004FF40012A4E74FF40012A1E74FF4001266
:102068009EE7594A934253D9A83A934231D002F590
:102078008062934231D0A2F5687293422FD002F564
:10208800806293422DD0A2F5896293422BD002F54B
:10209800806293422AD0A2F56872934229D002F551
:1020A8008062934228D0A2F58962934227D002F534
:1020B8008062934226D0A2F56872934225D002F539
:1020C8008062934202D04FF0006303E04FF40013A4
:1020D80000E020233B4A936064E72023FAE72023AB
:1020E800F8E72023F6E74FF40063F3E74FF40063C3
:1020F800F0E74FF40063EDE74FF40063EAE74FF4CD
:102108000013E7E74FF40013E4E74FF40013E1E7A7
:102118002E4A93425ED9483A934231D002F5806202
:10212800934231D0A2F5687293422FD002F58062B3
:1021380093422DD0A2F5896293422BD002F580629A
:1021480093422AD0A2F56872934229D002F58062A0
:10215800934228D0A2F58962934227D002F5806283
:10216800934226D0A2F56872934225D002F5806288
:10217800934202D04FF0006303E04FF4001300E0F5
:102188002023134AD3600DE72023FAE72023F8E73A
:102198002023F6E74FF40063F3E74FF40063F0E71A
:1021A8004FF40063EDE74FF40063EAE74FF40013E0
:1021B800E7E74FF40013E4E74FF40013E1E700BF4B
:1021C8005864024000640240B8600240586002400F
:1021D80000600240B14A934231D002F580629342D6
:1021E80031D0A2F5687293422FD002F580629342F3
:1021F8002DD0A2F5896293422BD002F580629342DA
:102208002AD0A2F56872934229D002F580629342DF
:1022180028D0A2F58962934227D002F580629342C2
:1022280026D0A2F56872934225D002F580629342C7
:1022380002D04FF0006303E04FF4001300E02023C6
:10224800974A9360AEE62023FAE72023F8E7202395
:10225800F6E74FF40063F3E74FF40063F0E74FF459
:102268000063EDE74FF40063EAE74FF40013E7E794
:102278004FF40013E4E74FF40013E1E74FF4801242
:1022880000E01022874BDA602368874A934240F2C5
:10229800CD81A2F58962934200F0668102F58062E1
:1022A800934200F0A881A2F56872934200F0A581DC
:1022B80002F58062934200F0A281A2F589629342FE
:1022C80000F09F8102F58062934200F09D81A2F5A3
:1022D8006872934200F09B8102F58062934200F09D
:1022E8009981A2F58962934200F0978102F5806294
:1022F800934200F09581A2F56872934200F09381B1
:1023080002F58062934200F02C814FF000722CE1BC
:102318001022B7E71022B5E71022B3E74FF4806226
:10232800B0E74FF48062ADE74FF48062AAE74FF45C
:102338008062A7E74FF48012A4E74FF48012A1E768
:102348004FF480129EE7594A934253D9A83A9342D0
:1023580031D002F58062934231D0A2F5687293427F
:102368002FD002F5806293422DD0A2F58962934264
:102378002BD002F5806293422AD0A2F5687293426C
:1023880029D002F58062934228D0A2F5896293424F
:1023980027D002F58062934226D0A2F56872934254
:1023A80025D002F58062934202D04FF0806303E0AB
:1023B8004FF4801300E010233A4A936064E7102337
:1023C800FAE71023F8E71023F6E74FF48063F3E702
:1023D8004FF48063F0E74FF48063EDE74FF48063D8
:1023E800EAE74FF48013E7E74FF48013E4E74FF48C
:1023F8008013E1E72E4A93425FD9483A934231D09D
:1024080002F58062934231D0A2F5687293422FD0D0
:1024180002F5806293422DD0A2F5896293422BD0B7
:1024280002F5806293422AD0A2F56872934229D0BD
:1024380002F58062934228D0A2F58962934227D0A0
:1024480002F58062934226D0A2F56872934231D099
:1024580002F58062934202D04FF0806303E04FF4AC
:10246800801300E010230E4AD3600DE71023FAE72B
:102478001023F8E71023F6E74FF48063F3E74FF4EF
:102488008063F0E74FF48063EDE74FF48063EAE799
:102498004FF48013E7E74FF48013E4E7106002403D
:1024A800006002400064024058640240B860024084
:1024B800586002404FF48013D5E7B24A934231D0B6
:1024C80002F58062934231D0A2F5687293422FD010
:1024D80002F5806293422DD0A2F5896293422BD0F7
:1024E80002F5806293422AD0A2F56872934229D0FD
:1024F80002F58062934228D0A2F58962934227D0E0
:1025080002F58062934226D0A2F56872934225D0E4
:1025180002F58062934202D04FF0806303E04FF4EB
:10252800801300E01023984A9360ADE61023FAE781
:102538001023F8E71023F6E74FF48063F3E74FF42E
:102548008063F0E74FF48063EDE74FF48063EAE7D8
:102558004FF48013E7E74FF48013E4E74FF4801358
:10256800E1E74FF4002200E00822884BDA60236894
:10257800874A934240F2CE81A2F58962934200F0E5
:10258800678102F58062934200F0A981A2F5687222
:10259800934200F0A68102F58062934200F0A38185
:1025A800A2F58962934200F0A08102F5806293420D
:1025B80000F09E81A2F56872934200F09C8102F5BA
:1025C8008062934200F09A81A2F58962934200F0FA
:1025D800988102F58062934200F09681A2F56872B4
:1025E800934200F0948102F58062934200F02D81BD
:1025F8004FF080722DE10822B7E70822B5E70822DC
:10260800B3E74FF40072B0E74FF40072ADE74FF450
:102618000072AAE74FF40072A7E74FF40022A4E77C
:102628004FF40022A1E74FF400229EE7594A934253
:1026380053D9A83A934231D002F58062934231D0FF
:10264800A2F5687293422FD002F5806293422DD092
:10265800A2F5896293422BD002F5806293422AD078
:10266800A2F56872934229D002F58062934228D07D
:10267800A2F58962934227D002F58062934226D060
:10268800A2F56872934225D002F58062934202D087
:102698004FF0007303E04FF4002300E008233B4AA7
:1026A800936064E70823FAE70823F8E70823F6E7C6
:1026B8004FF40073F3E74FF40073F0E74FF400733F
:1026C800EDE74FF40073EAE74FF40023E7E74FF430
:1026D8000023E4E74FF40023E1E72F4A934260D94F
:1026E800483A934231D002F58062934231D0A2F544
:1026F800687293422FD002F5806293422DD0A2F5E2
:10270800896293422BD002F5806293422AD0A2F5C7
:102718006872934229D002F58062934228D0A2F5CC
:102728008962934227D002F58062934226D0A2F5AF
:102738006872934232D002F58062934202D04FF021
:10274800007303E04FF4002300E008230E4AD3602F
:102758000DE70823FAE70823F8E70823F6E74FF41C
:102768000073F3E74FF40073F0E74FF40073EDE7FD
:102778004FF40073EAE74FF40023E7E74FF4002330
:10278800E4E700BF106002400060024000640240BD
:1027980058640240B8600240586002404FF4002379
:1027A800D4E7B24A934231D002F58062934231D0E5
:1027B800A2F5687293422FD002F5806293422DD021
:1027C800A2F5896293422BD002F5806293422AD007
:1027D800A2F56872934229D002F58062934228D00C
:1027E800A2F58962934227D002F58062934226D0EF
:1027F800A2F56872934225D002F58062934202D016
:102808004FF0007303E04FF4002300E00823984AD8
:102818009360ACE60823FAE70823F8E70823F6E70D
:102828004FF40073F3E74FF40073F0E74FF40073CD
:10283800EDE74FF40073EAE74FF40023E7E74FF4BE
:102848000023E4E74FF40023E1E74FF4802200E09F
:102858000422884BDA602368874A934240F2A181B8
:10286800A2F58962934200F0678102F58062934283
:1028780000F08081A2F56872934200F07D8102F534
:102888008062934200F07A81A2F58962934200F057
:10289800778102F58062934200F07481A2F5687234
:1028A800934200F0718102F58062934200F06E81DC
:1028B800A2F58962934200F06B8102F5806293422F
:1028C80000F06981A2F56872934200F0678102F511
:1028D8008062934200F02D814FF480022DE10422A2
:1028E800B7E70422B5E70422B3E74FF48072B0E7F4
:1028F8004FF48072ADE74FF48072AAE74FF480720C
:10290800A7E74FF48022A4E74FF48022A1E74FF411
:1029180080229EE7594A934253D9A83A934231D02C
:1029280002F58062934231D0A2F5687293422FD0AB
:1029380002F5806293422DD0A2F5896293422BD092
:1029480002F5806293422AD0A2F56872934229D098
:1029580002F58062934228D0A2F58962934227D07B
:1029680002F58062934226D0A2F56872934225D080
:1029780002F58062934202D04FF0807303E04FF477
:10298800802300E004233B4A936064E70423FAE7CA
:102998000423F8E70423F6E74FF48073F3E74FF4D2
:1029A8008073F0E74FF48073EDE74FF48073EAE744
:1029B8004FF48023E7E74FF48023E4E74FF48023C4
:1029C800E1E72F4A934260D9483A934231D002F561
:1029D8008062934231D0A2F5687293422FD002F5FB
:1029E800806293422DD0A2F5896293422BD002F5E2
:1029F800806293422AD0A2F56872934229D002F5E8
:102A08008062934228D0A2F58962934227D002F5CA
:102A18008062934226D0A2F56872934232D002F5C2
:102A28008062934202D04FF0807303E04FF480231A
:102A380000E004230E4AD3600DE70423FAE70423D9
:102A4800F8E70423F6E74FF48073F3E74FF4807355
:102A5800F0E74FF48073EDE74FF48073EAE74FF443
:102A68008023E7E74FF48023E4E700BF10600240CB
:102A7800006002400064024058640240B8600240AE
:102A8800586002404FF48023D4E7994A934231D0EA
:102A980002F58062934231D0A2F5687293422FD03A
:102AA80002F5806293422DD0A2F5896293422BD021
:102AB80002F5806293422AD0A2F56872934229D027
:102AC80002F58062934228D0A2F58962934227D00A
:102AD80002F58062934226D0A2F56872934225D00F
:102AE80002F58062934202D04FF0807303E04FF406
:102AF800802300E004237F4A9360ACE60423FAE7CE
:102B08000423F8E70423F6E74FF48073F3E74FF460
:102B18008073F0E74FF48073EDE74FF48073EAE7D2
:102B28004FF48023E7E74FF48023E4E74FF4802352
:102B3800E1E74FF4803200E001226F4BDA6022684F
:102B4800136843F0160313602268536943F0800347
:102B58005361236C002B00F025812268136843F031
:102B6800080313602268136843F001031360002010
:102B7800FFF7C9B90122E0E70122DEE70122DCE71D
:102B88004022DAE74022D8E74022D6E74022D4E7BD
:102B98004FF48032D1E74FF48032CEE74FF48032E1
:102BA800CBE7564A93424FD9A83A934231D002F51F
:102BB8008062934231D0A2F5687293422FD002F519
:102BC800806293422DD0A2F5896293422BD002F500
:102BD8008062934229D0A2F56872934227D002F509
:102BE8008062934225D0A2F58962934223D002F5F0
:102BF8008062934222D0A2F56872934221D002F5F6
:102C08008062934202D04FF4800303E04FF4803394
:102C180000E00123384A936091E70123FAE7012392
:102C2800F8E70123F6E74023F4E74023F2E74023DF
:102C3800F0E74023EEE74FF48033EBE74FF48033BF
:102C4800E8E74FF48033E5E72D4A93425AD9483AEA
:102C5800934231D002F58062934231D0A2F5687276
:102C680093422FD002F5806293422DD0A2F589625B
:102C780093422BD002F58062934229D0A2F5687264
:102C8800934227D002F58062934225D0A2F589624B
:102C9800934223D002F58062934222D0A2F5687253
:102CA800934221D002F58062934202D04FF4800310
:102CB80003E04FF4803300E001230E4AD3603EE77F
:102CC8000123FAE70123F8E70123F6E74023F4E7B5
:102CD8004023F2E74023F0E74023EEE74FF4803348
:102CE800EBE74FF48033E8E74FF48033E5E700BFC4
:102CF800106002400060024000640240B860024078
:102D0800586002402B4A934231D002F580629342C8
:102D180031D0A2F5687293422FD002F580629342B7
:102D28002DD0A2F5896293422BD002F5806293429E
:102D380029D0A2F56872934227D002F580629342A7
:102D480025D0A2F58962934223D002F5806293428E
:102D580022D0A2F56872934221D002F58062934294
:102D680002D04FF4800303E04FF4803300E00123E6
:102D7800114A9360E3E60123FAE70123F8E7012308
:102D8800F6E74023F4E74023F2E74023F0E7402347
:102D9800EEE74FF48033EBE74FF48033E8E74FF486
:102DA8008033E5E7A36C002B7FF4D7AEDAE6022088
:102DB800FFF7A9B8106002400060024000230F2B03
:102DC80000F2E48070B582B060E085685E0003249C
:102DD800B44025EA0405CC68B4402C4384604568B7
:102DE80025EA02054C68C4F300129A402A4342605F
:102DF8005AE0DC08083450F8246003F00702950014
:102E08000F22AA4026EA020E0A69AA4042EA0E02E6
:102E180040F824205CE0072200E0002202FA0EF2CB
:102E28002A4302345A4D45F824205A4A94686FEAD6
:102E38000C0224EA0C054E6816F4801F01D04CEAF7
:102E48000405544CA560E46802EA04054E6816F4CB
:102E5800001F01D04CEA04054E4CE560646802EAA4
:102E680004054E6816F4003F01D04CEA0405494CAD
:102E78006560246822404D6815F4803F01D04CEA13
:102E88000402444C226001330F2B7DD801229A4062
:102E98000C6804EA020C32EA0404F4D14C6804F029
:102EA8000304013C012C90D94A6802F00302032A6A
:102EB80009D0C4685D000322AA4024EA02048A6893
:102EC800AA402243C2604A6802F00302022A90D054
:102ED80004684FEA430E032202FA0EF224EA0204BF
:102EE8004A6802F0030202FA0EF2224302604A68BC
:102EF80012F4403FC7D000220192274A546C44F490
:102F080080445464526C02F480420192019A9C08F5
:102F1800A51C1F4A52F8255003F003024FEA820EFF
:102F28000F2202FA0EF225EA02051C4A90423FF4EB
:102F380074AF02F5806290421AD002F58062904226
:102F480018D002F58062904216D002F58062904255
:102F580014D002F58062904212D002F5806290424D
:102F680010D002F5806290423FF455AF082255E731
:102F7800012253E7022251E703224FE704224DE7DB
:102F880005224BE7062249E702B070BD704700BF33
:102F980000380140003C0140003802400000024077
:102FA800002800F0E08170B582B00446036813F091
:102FB800010F3BD09F4B9B6803F00C03042B2CD0D4
:102FC8009C4B9B6803F00C03082B21D06368B3F576
:102FD800803F4FD0B3F5A02F52D0964B1A6822F4F9
:102FE80080321A601A6822F480221A606368002B03
:102FF80050D0FEF7D3F805468E4B1B6813F4003FFC
:1030080014D1FEF7CBF8401B6428F5D90320B1E1B1
:10301800884B5B6813F4800FD8D0864B1B6813F479
:10302800003F03D06368002B00F09F81236813F0F2
:10303800020F54D07F4B9B6813F00C0F3ED07D4B92
:103048009B6803F00C03082B33D0E368002B68D08F
:10305800794B01221A60FEF7A1F80546754B1B68EB
:1030680013F0020F54D1FEF799F8401B0228F5D946
:1030780003207FE16F4A136843F480331360B5E798
:103088006C4B1A6842F480221A601A6842F4803243
:103098001A60ABE7FEF782F80546664B1B6813F427
:1030A800003FC3D0FEF77AF8401B6428F5D9032007
:1030B80060E1604B5B6813F4800FC6D15D4B1B6801
:1030C80013F0020F03D0E368012B40F05081594AF6
:1030D800136823F0F803216943EAC10313602368E6
:1030E80013F0080F42D063696BB3534B0122C3F846
:1030F800802EFEF753F805464E4B5B6F13F0020F18
:1031080034D1FEF74BF8401B0228F5D9032031E1F2
:10311800484A136823F0F803216943EAC10313609E
:10312800DDE7454B00221A60FEF738F80546414BAB
:103138001B6813F0020FD2D0FEF730F8401B0228AC
:10314800F5D9032016E13C4B0022C3F8802EFEF788
:1031580025F80546374B5B6F13F0020F06D0FEF7D4
:103168001DF8401B0228F5D9032003E1236813F05A
:10317800040F77D02F4B1B6C13F0805F33D10023E3
:1031880001932C4B1A6C42F080521A641B6C03F0AA
:1031980080530193019B0125284B1B6813F4807F02
:1031A80023D0A368012B34D0052B38D0214B1A6FBC
:1031B80022F001021A671A6F22F004021A67A36844
:1031C800002B3DD0FDF7EAFF06461A4B1B6F13F0A4
:1031D800020F46D1FDF7E2FF801B41F28833984287
:1031E800F3D90320C6E00025D6E7144A136843F450
:1031F80080731360FDF7D2FF0646104B1B6813F46B
:10320800807FCED1FDF7CAFF801B0228F5D90320A5
:10321800B0E0084A136F43F001031367CFE7054B8B
:103228001A6F42F004021A671A6F42F001021A6715
:10323800C5E700BF00380240000047420070004068
:10324800FDF7ACFF0646524B1B6F13F0020F08D078
:10325800FDF7A4FF801B41F288339842F3D903207D
:1032680088E0EDB9A369002B00F08380484A926892
:1032780002F00C02082A51D0022B17D0454B00222D
:103288001A66FDF78BFF0446414B1B6813F0007F5D
:1032980042D0FDF783FF001B0228F5D9032069E01F
:1032A8003B4A136C23F080531364DBE7394B00224D
:1032B8001A66FDF773FF0546354B1B6813F0007F50
:1032C80006D0FDF76BFF401B0228F5D9032051E01B
:1032D800E369226A1343626A43EA8213A26A5208C4
:1032E800013A43EA0243E26A43EA0263284A536026
:1032F800284B01221A66FDF751FF0446244B1B6830
:1033080013F0007F06D1FDF749FF001B0228F5D90D
:1033180003202FE000202DE000202BE0012B2BD0F4
:103328001B4B5B6803F48001E269914226D103F0EC
:103338003F02216A8A4223D1616A47F6C0721A4065
:10334800B2EB811F1ED103F44031A26A5208013A40
:10335800B1EB024F18D103F07063E26AB3EB026F6E
:1033680014D1002006E001207047012002E001206E
:1033780000E0002002B070BD0120FBE70120F9E762
:103388000120F7E70120F5E70120F3E70120F1E745
:10339800003802400000474208B5254B9B6803F0FF
:1033A8000C03042B3FD0082B3FD1214B5A6802F065
:1033B8003F025B6813F4800F12D01D4B5968C1F3AC
:1033C80088111C480023A1FB0001FDF757F9184B91
:1033D8005B68C3F3014301335B00B0FBF3F025E006
:1033E800134B5968C1F3881C4FEA4C11B1EB0C0020
:1033F8006EEB0E0E4FEA8E1343EA90638101091AB1
:1034080063EB0E03DB0043EA5173C90011EB0C0CAC
:1034180043F10003990200234FEA8C2041EA9C51B2
:10342800FDF72CF9D3E7034800E0034808BD00BFC7
:1034380000380240001BB7000024F400002800F008
:103448009B8070B50D4604464F4B1B6803F007037D
:103458008B4208D2CBB24C4A1370136803F00703AF
:103468008B4240F08B80236813F0020F17D013F0C3
:10347800040F04D0454A936843F4E05393602368EB
:1034880013F0080F04D0414A936843F460439360F3
:103498003E4A936823F0F003A1680B4393602368C6
:1034A80013F0010F32D06368012B21D09A1E012A34
:1034B80025D9364A126812F0020F61D033498A685A
:1034C80022F0030213438B60FDF768FE06462F4B7C
:1034D8009B6803F00C036268B3EB820F16D0FDF70C
:1034E8005DFE801B41F288339842F0D9032042E008
:1034F800264A126812F4003FE0D101203BE0234A3B
:10350800126812F0007FD9D1012034E01E4B1B68ED
:1035180003F00703AB4207D9EAB21B4B1A701B68CA
:1035280003F00703AB422DD1236813F0040F06D034
:10353800164A936823F4E053E1680B4393602368C9
:1035480013F0080F07D0114A936823F460432169E8
:1035580043EAC1039360FFF71FFF0C4B9B68C3F35B
:1035680003130B4AD35CD8400A4B18600A4B1868FF
:10357800FDF7C8FD002070BD012070470120FAE763
:103588000120F8E70120F6E7003C0240003802403D
:10359800C04400080000002008000020014B186803
:1035A800704700BF0000002008B5FFF7F7FF044B85
:1035B8009B68C3F38223034AD35CD84008BD00BF8D
:1035C80000380240D044000808B5FFF7E7FF044B75
:1035D8009B68C3F34233034AD35CD84008BD00BF9D
:1035E80000380240D0440008026802F10C0353E896
:1035F800003F23F490730C3242E800310029F3D1E4
:10360800026802F1140353E8003F23F00103143267
:1036180042E800310029F3D1036B012B05D02023A8
:1036280080F84230002303637047026802F10C03FC
:1036380053E8003F23F010030C3242E80031002920
:10364800F3D1ECE790F84130DBB2212B01D0022016
:1036580070478368B3F5805F17D0036A5A1C02620B
:103668001A7803685A60C38C9BB2013B9BB2C3842F
:103678004BB90268D36823F08003D3600268D3682B
:1036880043F04003D360002070470369002BE4D166
:10369800036A1B880268C3F308035360036A023392
:1036A8000362E0E738B504460268136923F440531F
:1036B800C1680B431361836802691343426913436A
:1036C800C2691A430168CB6823F4164323F00C033C
:1036D8001343CB600268536923F4407381690B4339
:1036E80053610368314A934206D002F580629342DF
:1036F80002D0FFF759FF01E0FFF766FFE369B3F572
:10370800004F29D00021031849411B1841F100013D
:10371800C90041EA5371DB00181863684FEA830255
:103728004FEA937341F10001FCF7A8FF204DA5FB78
:1037380000325109642303FB11031B013233A5FB3B
:1037480003235B0903F0F00202EB011203F00F03FD
:10375800216813448B6038BD0023021843EB030132
:10376800121841F10001C90041EA5271D200101843
:1037780041F10001626892185B41FCF77FFF0C4D34
:10378800A5FB00325109642303FB1103DB0032332C
:10379800A5FB03235B095A0002F4F87202EB01123D
:1037A80003F00703216813448B60D4E7001001403D
:1037B8001F85EB512DE9F04383B005460E461746A9
:1037C8009946DDF828802C68246836EA04030CBF83
:1037D8004FF0010C4FF0000CBC4528D1B8F1FF3F69
:1037E800F1D0FDF7DBFCA0EB0900404523D8B8F188
:1037F800000F22D02B68DA6812F0040FE3D0802E75
:10380800E1D0402EDFD01A6812F0080FDBD0002478
:1038180001941A6801925B680193019B2846FFF79F
:10382800E3FE08236B6485F84040012000E0002097
:1038380003B0BDE8F0830320FAE70320F8E760B39C
:1038480010B5044690F8413013B3242384F841306E
:103858002268D36823F40053D3602046FFF722FF81
:103868002268136923F4904313612268536923F093
:103878002A0353612268D36843F40053D3600020BD
:103888006064202384F8413084F84230606310BDBE
:1038980080F84030FDF744FBD7E7012070472DE959
:1038A800F04182B01E4690F84130DBB2202B56D151
:1038B80004460D469046002955D00AB901204FE02C
:1038C80000234364212380F84130FDF767FC074655
:1038D800A4F82480A4F82680A368B3F5805F02D0FA
:1038E8004FF0000814E023692BB34FF000080FE0F5
:1038F800202384F84130032032E038F8023B226864
:10390800C3F308035360E28C92B2013A92B2E284A4
:10391800E38C9BB293B100963B460022802120465F
:10392800FFF748FF0028E3D1002DE6D015F8012B5A
:1039380023685A60E7E7A8460025E9E700963B4672
:10394800002240212046FFF735FF18B9202384F8CC
:10395800413005E0202384F84130032000E00220B4
:1039680002B0BDE8F0810120FAE7704708B50168A8
:10397800CA6822F04002CA60202280F84120FFF77E
:10398800F4FF002008BD7047704708B5806B00231E
:10399800C385C384FFF7F8FF08BD704790F842302D
:1039A800DBB2222B69D18368B3F5805F4FD0826A7E
:1039B800B3F5805F04D0002B56D10369002B53D197
:1039C80003685B681370836A01338362C38D9BB29B
:1039D800013B9BB2C385002B51D100B583B002686F
:1039E800D36823F02003D3600268D36823F480737C
:1039F800D3600268536923F001035361202380F8E0
:103A0800423000234363036B012B33D1002303634C
:103A1800026802F10C0353E8003F23F010030C3254
:103A280042E800310029F3D103681A6812F0100F38
:103A380006D0002201921A6801925B680193019BEB
:103A4800818DFFF7AAFF002003B05DF804FB02692F
:103A5800002AACD1826A03685B68C3F30803138049
:103A6800836A02338362B1E703685B6803F07F030C
:103A78001370A8E7FFF787FFE5E7022070470020EB
:103A88007047000030B583B0044602681368D068F8
:103A9800516913F00F0505D113F0200F02D010F073
:103AA800200F19D12DB111F0010119D110F4907F17
:103AB80016D1216B01297DD013F0800F03D010F0AF
:103AC800800F40F0198113F0400F03D010F0400F21
:103AD80040F0168103B030BD2046FFF75FFFF9E7DD
:103AE80013F0010F06D010F4807F03D0626C42F00F
:103AF8000102626413F0040F04D019B1626C42F041
:103B08000202626413F0020F04D019B1626C42F031
:103B18000402626413F0080F07D010F0200F00D1E0
:103B280019B1626C42F008026264626C002AD1D05A
:103B380013F0200F02D010F0200F29D123685B6901
:103B480003F04003626C12F0080F00D163B3204603
:103B5800FFF74AFD23685B6913F0400F20D0226805
:103B680002F1140353E8003F23F04003143242E803
:103B780000310029F3D1E36B73B1634A1A65E06B36
:103B8800FEF788F80028A5D0E06B036D9847A1E7F9
:103B98002046FFF703FFD1E72046FFF7F5FE99E738
:103BA8002046FFF7F1FE95E72046FFF7EDFE0023DC
:103BB80063648FE713F0100F3FF47EAF10F0100F1F
:103BC8003FF47AAF0023019313680193536801937C
:103BD800019B536913F0400F52D0E26B13685B6886
:103BE8009BB2002B3FF476AFA18D99427FF672AF5E
:103BF800E385D369B3F5807F37D0226802F10C03DF
:103C080053E8003F23F480730C3242E80031002966
:103C1800F3D1226802F1140353E8003F23F00103B3
:103C2800143242E800310029F3D1226802F114036A
:103C380053E8003F23F04003143242E800310029E2
:103C4800F3D1202384F8423000232363226802F151
:103C58000C0353E8003F23F010030C3242E8003114
:103C68000029F3D1E06BFDF7CBFF02236363A18D3D
:103C7800E38D9BB2C91A89B22046FFF78EFE29E769
:103C8800A18DE38D9BB2C91A89B2E38D9BB2002B3B
:103C98003FF420AF00293FF41DAF226802F10C0366
:103CA80053E8003F23F490730C3242E800300028B8
:103CB800F3D1226802F1140353E8003F23F0010313
:103CC800143242E800300028F3D1202384F842302F
:103CD80000232363226802F10C0353E8003F23F01A
:103CE80010030C3242E800300028F3D1022363634A
:103CF8002046FFF752FEEDE62046FFF7A3FCE9E673
:103D08002046FFF733FEE5E693390008DFF834D0A4
:103D1800FDF7B2F80C480D490D4A002302E0D458CB
:103D2800C4500433C4188C42F9D30A4A0A4C0023FD
:103D380001E013600432A242FBD300F0CBFAFCF797
:103D4800D5FF704700000220000000203C0400203E
:103D5800F84400084004002024070020FEE7000083
:103D680010B58AB0002306930122079200930193AD
:103D780002930393049308920E2209920593074C29
:103D880069462046FDF7CAFA02212046FDF7BCFC29
:103D98002046FDF761FB0AB010BD00BF600400209B
:103DA8000268094B9A4200D0704700B583B06B4651
:103DB800064A01210648FDF7F2FB10B903B05DF889
:103DC80004FBFCF73DFFF9E7006800404C060020C3
:103DD80088040020B0F9003003810A784B7843EA60
:103DE800022303808A78CB7843EA022343800A7946
:103DF8004B7943EA022383808B79837170470000F3
:103E080008B509494FF400730B6000238B60CB6041
:103E180008230B61054A40FA03F39370D070044BF2
:103E28000448FDF747FB08BD68060020800600200F
:103E3800E006002060040020038802899B1A9AB2D9
:103E48001BB2B3F5805F18DDA2F500531BB25B42CD
:103E5800026941699A1841EBE373026143616FF4A7
:103E6800801191426FF0004199410DDA12F58012EC
:103E780043F1004302614361704713F5805FE6DA5E
:103E880002F500531BB2E2E74FF4801191424FF064
:103E98000041994105DBB2F5801263F100430261EC
:103EA8004361704708B5B0F90020028191F800C05D
:103EB8004A7842EA0C22028091F802C0CA7842EAA3
:103EC8000C22428091F804C04A7942EA0C2282808E
:103ED8008A798271FFF7B0FF08BD000008B5036852
:103EE800A3F20123052B07D8DFE803F00F07060B21
:103EF80006030848FFF7D6FF08BD0748FFF7D2FFBB
:103F0800FAE70648FFF766FFF6E70548FFF762FF9E
:103F1800F2E700BFC8060020B0060020A606002071
:103F28009206002002680B4B9A4200D0704700B5F9
:103F380083B06B46084A00210848FDF730FB30B9CA
:103F480069460548FFF7CAFF03B05DF804FBFCF7B4
:103F580077FEF5E7006400404C060020600400206E
:103F68007047000008B5064BDB6B834200D008BDE4
:103F780000F0FCF80349044800F02EF9F7E700BF09
:103F8800B8050020E4060020FC06002008B5064B12
:103F9800DB6B834200D008BD00F0E8F80349044811
:103FA80000F01AF9F7E700BFB8050020E406002082
:103FB8000E07002030B583B005686C6944F04004F2
:103FC8006C6121B10468E16841F01001E160C16BE6
:103FD8000D4CCC63C16B0D4C4C64C16B0C4CCC6468
:103FE800C16B0C68216821F0010121600168BDF8EE
:103FF800184000940431C06BFDF760FF08B903B0A6
:1040080030BDFCF71DFEFAE76D3F0008953F00083C
:10401800693F000860B1017043638263009B43609D
:10402800029BC360019B836000230362C3618361B9
:104038007047002800F092802DE9F0470446C769D0
:1040480007628669C661026141611046FCF770F932
:104058000546A0612378002B38D16168FCF7B0F8D9
:1040680007466062A1682846FCF7AAF8A16AFCF72F
:1040780061F90546A0620023E362666B3146FCF7EE
:10408800CDFA80B1A662A16A3846FCF753F900213F
:10409800FCF750F905462063A66B3146FCF7BEFADB
:1040A80058B1266314E006F1004631462846FCF76D
:1040B80097FA0028E7D0A662E5E706F10046314600
:1040C8002846FCF78DFA18B1266301E0012B02D0CF
:1040D800206BBDE8F087D4F804803146FCF728F956
:1040E80001464046FCF76CF880466062A1682846A5
:1040F800FCF766F88146A062D4F80CA03146304639
:10410800FCF718F901462846FCF712F9014638462B
:10411800FCF710F901465046FCF752F80546E062F4
:1041280049464046FCF706F901462846FCF702F9DD
:10413800216BFCF7FFF805462063A66B3146FCF7B8
:104148006DFA08B12663C3E706F1004631462846F2
:10415800FCF746FA0028BBD02663B9E70020704771
:10416800002800DD7047404200B2FBE708B5194B54
:10417800B3F90000FFF7F4FFB0F52F7F19DC154BFA
:10418800B3F90200FFF7ECFFB0F52F7F11DC114BFC
:10419800B3F90400FFF7E4FFB0F52F7F09DC0D4BFE
:1041A800B3F90600FFF7DCFFB0F52F7F01DC002034
:1041B8000FE0084B00221A805A809A80DA801A721F
:1041C8005A729A81DA811A829A74DA749A825A81B6
:1041D800012008BDE40600200378427843EA022360
:1041E800C3F30A030B80A3F580639AB20B8043786C
:1041F80090F802C0DB0843EA4C13C3F30A034B8070
:10420800A3F580634B80837890F803C09B0943EA49
:104218008C0390F804C043EA8C23C3F30A038B8011
:10422800A3F580638B80037990F805C05B0843EAA7
:10423800CC13C3F30A03CB80A3F58063CB8005328C
:1042480092B20A2A02D800230B704B70B1F90030E1
:1042580005339BB20A2B02D800230B704B70B1F9BF
:10426800003005339BB20A2B02D800230B704B7029
:10427800B1F9003005339BB20A2B02D800230B702A
:104288004B704379C3F301134B7243799B090B724B
:104298008379C27943EA02238B81037A427A43EA1B
:1042A8000223CB81837AC27A43EA02230B82037BFF
:1042B8008B74437BCB74837BC27B43EA02238B8260
:1042C800037C427C43EA02231AB24B81A2F5806345
:1042D8004B81704770B50D4E0D4D761BB61006D04C
:1042E800002455F8043B01349847A642F9D1094EF9
:1042F800094D761B00F0D4F8B61006D0002455F806
:10430800043B01349847A642F9D170BDEC4400083B
:10431800EC440008F4440008EC440008830730B576
:1043280048D0541E002A3FD0CAB2034601E0013CDF
:104338003AD303F8012B9D07F9D1032C2DD9CDB21F
:1043480045EA05250F2C45EA054536D9A4F11002A2
:1043580022F00F0C03F1200EE6444FEA121C03F181
:10436800100242E9045542E9025510327245F8D16B
:104378000CF1010214F00C0F03EB021204F00F0C05
:1043880013D0ACF1040323F003030433134442F8BD
:10439800045B9342FBD10CF003042CB1CAB21C4459
:1043A80003F8012B9C42FBD130BD64461346002C18
:1043B800F4D1F9E703461446BFE71A46A446E0E7F6
:1043C800024B13B1024800F005B870470000000026
:1043D800E9430008002301461A46184600F01AB8B7
:1043E80038B5084B084D5B1B9C1007D0043B1D4497
:1043F800013C55F804399847002CF9D1BDE83840FC
:1044080000F054B8F8440008F4440008704700BFAE
:10441800704700BF2DE9F047DFF87CA00646DAF8C0
:10442800000098460F469146FFF7F0FF1B4B1B68AC
:10443800D3F8484124B365681F2D26DC5EB96B1C90
:104448000235DAF80000636044F82570FFF7E0FFF2
:104458000020BDE8F08704EB85010123C1F88890AE
:10446800D4F88821AB401A43022EC4F88821C1F839
:104478000881E4D1D4F88C211343C4F88C31DEE7E9
:1044880003F5A674C3F84841D5E7DAF80000FFF74A
:10449800BFFF4FF0FF30DCE738040020E04400089D
:1044A800F8B500BFF8BC08BC9E467047F8B500BF19
:0844B800F8BC08BC9E467047E9
:1044C00000000000000000000102030406070809C4
:1044D000000000000102030400061016000610167A
:0444E00010000020A8
:0844E400D0C1FF7F01000000C0
:0844EC00C9430008AD010008FE
:0444F4008901000832
:1044F8000024F4000100000010000000000000008B
:1045080000000000FC02002064030020CC0300200F
:104518000000000000000000000000000000000093
:104528000000000000000000000000000000000083
:104538000000000000000000000000000000000073
:104548000000000000000000000000000000000063
:104558000000000000000000000000000000000053
:104568000000000000000000000000000000000043
:104578000000000000000000000000000000000033
:104588000000000000000000000000000000000023
:104598000000000000000000000000000000000013
:1045A8000000000000000000010000000000000002
:1045B8000E33CDAB34126DE6ECDE05000B000000C7
:1045C80000000000000000000000000000000000E3
:1045D80000000000000000000000000000000000D3
:1045E80000000000000000000000000000000000C3
:1045F80000000000000000000000000000000000B3
:0C4928000000000000000000200700203C
:0400000508003D159D
:00000001FF
